:100000000C94D2000C94F3000C94F3000C94F300C5
:100010000C94F3000C94F3000C94F3000C94F30094
:100020000C94F3000C94F3000C94F3000C94F30084
:100030000C94F3000C94F3000C94F3000C94F30074
:100040000C94F3000C94F3000C94F3000C94F30064
:100050000C94F3000C94F3000C94F3000C94140132
:100060000C94F3000C94F3000C94F3000C94F30044
:100070000C94F3000C94F3000C94F3000C94F30034
:100080000C94F3000C94F3000C94F3000C94F30024
:100090000C94F3000C94F3000C94F3000C94F30014
:1000A0000C94F3000C94F3000C94F3000C94F30004
:1000B0000C94F3000C94F3000C94F3000C94F300F4
:1000C0000C94F3000C94F3000C94F3000C94F300E4
:1000D0000C94F3000C94F3000C94F3000C94F300D4
:1000E0000C94F30000002200250028002B002E00B5
:1000F0003100340002010000050108010B0100007D
:100100002100240027002A002D00300033000101C7
:100110000000040107010A01050505050705080897
:100120000808020202020A0A080804040404010181
:100130000101010101010303030303030303040796
:1001400007070C0C0C0C0C0C0C0C0202020206062D
:100150000606060606060B0B0B0B0B0B0B0B010220
:1001600010202008081020401020408002010201C9
:100170000804020101020408102040808040201081
:1001800008040201800402018040201008040201DA
:100190000804020101020408102040800102040842
:1001A0001020408011241FBECFEFD1E2DEBFCDBFB3
:1001B00000E00CBF12E0A0E0B2E0EEEEF3E000E001
:1001C0000BBF02C007900D92A432B107D9F722E00D
:1001D000A4E2B2E001C01D92AD32B207E1F70E9485
:1001E0005E010C94F5010C94000090E0FC01E25AD1
:1001F000FE4F2491885E9E4FFC018491882399F0E4
:1002000090E0880F991FFC01E250FF4FA591B49137
:10021000FC01EC51FF4F859194918FB7F894EC91CC
:10022000E22BEC938FBF08951F920F920FB60F929F
:1002300011242F933F938F939F93AF93BF938091FC
:10024000290290912A02A0912B02B0912C023091A8
:10025000280223E0230F2D3758F50196A11DB11D6B
:10026000209328028093290290932A02A0932B02C4
:10027000B0932C028091240290912502A091260235
:10028000B09127020196A11DB11D80932402909385
:100290002502A0932602B0932702BF91AF919F91B0
:1002A0008F913F912F910F900FBE0F901F90189537
:1002B00026E8230F0296A11DB11DD2CF789484B5F4
:1002C000826084BD84B5816084BD85B5826085BD52
:1002D00085B5816085BD80916E00816080936E00E0
:1002E00010928100809181008260809381008091D2
:1002F0008100816080938100809180008160809383
:1003000080008091B10084608093B1008091B00042
:1003100081608093B0008091910082608093910011
:100320008091910081608093910080919000816024
:10033000809390008091A10082608093A1008091C1
:10034000A10081608093A1008091A00081608093D2
:10035000A000809121018260809321018091210180
:100360008160809321018091200181608093200130
:1003700080917A00846080937A0080917A00826014
:1003800080937A0080917A00816080937A008091D6
:100390007A00806880937A001092C100C4E1D2E0B4
:1003A00088810E94F500229682E0C432D807C1F706
:1003B000C6E0D2E088810E94F500229682E0C43136
:1003C000D807C1F7809100020E94F50080910202D7
:1003D0000E94F500809104020E94F500C0E0D0E088
:0E03E0002097F1F30E940000FBCFF894FFCFAE
:1003EE000C000B000A001E001F002000210022003E
:1003FE002300240016001700180019001A001B0015
:04040E001C001D00B1
:00000001FF
